:107000000C943E390C945B390C945B390C945B39CD
:107010000C945B390C945B390C945B390C945B39A0
:107020000C945B390C945B390C945B390C945B3990
:107030000C945B390C945B390C94E2390C94453A0E
:107040000C945B390C945B390C945D390C94A63923
:107050000C945B390C945B390C945B390C945B3960
:107060000C945B390C945B396D73290D0A00204F29
:107070004B21202800506173746520616761696E3F
:1070800020746F207665726966790D0A0041565248
:10709000204865786C6F6164657220312E302E62F5
:1070A00030616363640D0A506173746520796F7594
:1070B00072206865782066696C652C202768272017
:1070C000666F722068656C700D0A0027682720665D
:1070D0006F722068656C700D0A002071097265621C
:1070E0006F6F7420746F206170700D0A20720972C6
:1070F00065626F6F7420746F20626F6F746C6F6164
:107100006465720D0A20640964756D7020666C6197
:10711000736820696E2068657820666F726D61748F
:107120000D0A206573630961626F72742063757262
:1071300072656E7420636F6D6D616E640D0A000D73
:107140000A3A303030303030303146460D0A000DCA
:107150000A3A3130000D56657269666965643A20F5
:10716000000D466C61736865643A20000D0A43683F
:1071700065636B73756D206572726F7220696E2026
:107180006C696E653A0D0A000D0A48657820616EDB
:107190006420666C617368206D69736D61746368E7
:1071A0003A0D0A000D0A41646472657373657320B9
:1071B0006D75737420626520696E637265617369B1
:1071C0006E673A0D0A000D0A466972737420616495
:1071D0006472657373206D75737420626520303A34
:1071E0000D0A000D0A000D0A003E3A20000D0A00AB
:1071F0000D0A000D0A55415254206572726F723AA1
:107200002064617461206F76657272756E0D0A007C
:107210000D0A55415254206572726F723A206275A0
:1072200066666572206F766572666C6F772028746B
:1072300072792061206C6F776572206261756420BD
:1072400072617465290D0A00486176652061206EBF
:1072500069636520646179210D0A0D0A0052656237
:107260006F6F74696E6720696E746F20626F6F74E0
:107270006C6F616465720D0A0D0A000011241FBE57
:10728000CFEFD8E0DEBFCDBF11E0A0E0B1E0E8E194
:10729000FDE702C005900D92A230B107D9F725E0B5
:1072A000A2E0B1E001C01D92A83FB207E1F70E9441
:1072B0004B3E0C948A3E0C9400381F920F920FB6EE
:1072C0000F9211242F933F934F938F939F93EF939C
:1072D000FF933091C0004091C6008091F1059091DC
:1072E000F2050196937033FF05C02091F7052160E8
:1072F0002093F70534FF05C02091F7052260209305
:10730000F70520910301309104018217930731F4AE
:107310008091F70584608093F7050BC0E091F1053B
:10732000F091F205E75BFE4F40839093F205809366
:10733000F105A895FF91EF919F918F914F913F910A
:107340002F910F900FBE0F901F9018951F920F92C4
:107350000FB60F9211242F933F938F939F93EF9328
:10736000FF932091470130914801809169059091E8
:107370006A052817390731F48091C1008F7D809309
:10738000C10014C0E0916905F0916A05E75BFA4F0E
:1073900080818093C6008091690590916A0501966D
:1073A0008F71992790936A0580936905A895FF913D
:1073B000EF919F918F913F912F910F900FBE0F9062
:1073C0001F9018951F920F920FB60F9211242F93B2
:1073D0003F938F939F93AF93BF938091F3059091C9
:1073E000F405A091F505B091F6050196A11DB11D1A
:1073F0008093F3059093F405A093F505B093F605FB
:107400002D9A8091F3059091F405A091F505B09126
:10741000F60587709927AA27BB27892B8A2B8B2BE8
:1074200049F580910501909106010196909306011E
:107430008093050127B530E02817390720F4109212
:10744000060110920501209105013091060187B5D2
:10745000869590E02817390730F4809105019091C6
:10746000060188BD07C027B58091050190910601EE
:10747000281B28BDBF91AF919F918F913F912F9174
:107480000F900FBE0F901F9018951F920F920FB67E
:107490000F9211242D980F900FBE0F901F901895EA
:1074A0008F708A3010F4805D0895895C0895CF93C1
:1074B000DF93C82F82958F700E94503AD82F8C2F5F
:1074C0008F700E94503A2D2F30E0322F2227A901D1
:1074D000482BCA01DF91CF9108950F931F93CF934B
:1074E000DF93182F892F0E94573AEC01812F0E94B9
:1074F000573A8C01CE01A0E0B0E07727662720E064
:1075000030E0602B712B822B932BDF91CF911F9159
:107510000F91089590ED980F9A3060F09FEB980FBF
:10752000963010F4875308959FE9980F963020F411
:1075300087550895892F089580E008951F93CF936C
:10754000DF93EC0188810E948A3A182F89810E947A
:107550008A3A90E1199F800D1124DF91CF911F91FC
:1075600008951F93CF93DF93EC010E949E3A182F4A
:10757000CE0102960E949E3A212F30E0322F222720
:10758000A901480F511DCA01DF91CF911F910895A4
:1075900082E084BD80EF87BD83E085BD86E0809377
:1075A0006E000895F8946091F3057091F405809150
:1075B000F5059091F605789408951092C50080E144
:1075C0008093C40082E08093C00088E98093C1006A
:1075D00086E08093C20008952091470130914801D0
:1075E0002F5F3F4F2F713327F894409169055091D9
:1075F0006A054217530751F493B7916093BF78948B
:10760000889593B79E7F93BF7894EECF7894E0915E
:107610004701F0914801E75BFA4F8083F89430937B
:1076200048012093470178948091C1008062809343
:10763000C1000895CF93DF93FC018491EF0121965F
:10764000882321F00E94EC3AFE01F7CFDF91CF9121
:107650000895CF938A30910510F4805D0AC06AE0E6
:1076600070E00E94763EC82FCB010E94293B80E348
:107670008C0FCF910C94EC3ACF930E94573AC82FBD
:10768000892F0E94EC3A8C2FCF910C94EC3A1F93E7
:10769000CF93DF9300D0CDB7DEB70E946D3A182F9D
:1076A000892F6A8379830E94EC3A812F0E94EC3AF9
:1076B0007981872F0E94EC3A6A81862F0F900F9074
:1076C000DF91CF911F910C94EC3A209103013091FE
:1076D00004018091F1059091F20528173907B1F066
:1076E000F894E0910301F0910401E75BFE4F2081E3
:1076F00030E0809103019091040101969370909382
:107700000401809303017894C90108958FEF9FEFDE
:10771000089540910301509104012091F1053091A9
:10772000F20581E04217530709F480E0089528E04C
:1077300088E190E00FB6F894A895809360000FBEA2
:1077400020936000F89483B7816083BF7894889514
:1077500083B78E7F83BF7894F5CF8DE592E70E9443
:107760001A3B312C212C0E94973B88E492E70E941F
:107770001A3B50EB252E6AEA362E28E088E190E08D
:107780000FB6F894A895809360000FBE2093600018
:10779000FFCF8091F70582FF03C080E192E706C02A
:1077A0008091F70580FF06C083EF91E70E941A3BA6
:1077B0000E94AD3B0E94893B8823A9F10E94653B52
:1077C0008B3149F480EF91E70E941A3B1092070138
:1077D0001092020132C0E09102018D3011F08A3026
:1077E00091F4AE2FB0E0A95FBE4F1C92EE23D9F00A
:1077F00010920201809107018A33F9F08DEE91E732
:107800000E941A3B1AC0EF3380F491E09E0F9093D0
:107810000201F0E0E95FFE4F8083909107019A3307
:1078200011F00E94EC3A80E00895EF33E1F780E434
:107830008093020110924601F6CF81E0089589EE0F
:1078400091E70C941A3BEF92FF920F931F93CF9303
:10785000DF93062FC0E0D0E0E82EF12CCE15DF0537
:107860002CF480E20E94EC3A2196F8CFC0E0D0E000
:1078700010E0C017D1072CF48EE50E94EC3A219657
:10788000F8CF86EE91E7DF91CF911F910F91FF9096
:10789000EF900C941A3BCF93DF93C7E0D1E089912E
:1078A000882319F00E94EC3AFACF83EE91E7DF913A
:1078B000CF910C941A3BEFE6F5E08FEF819395E0C2
:1078C000EF3EF907D9F7089507B600FCFDCFF8940D
:1078D000E091EF05F091F005F695FE2FEE27F79574
:1078E000E79583E080935700E895789407B600FC0D
:1078F000FDCF80E090E041E0FC01E159FA4F2181A9
:1079000030E0322F22275081252BF894E091EF05AB
:10791000F091F005F695FE2FEE27F795E795E80F25
:10792000F91F090140935700E895112478940296B5
:107930008038910509F7F894E091EF05F091F00592
:10794000F695FE2FEE27F795E79585E08093570093
:10795000E895789407B600FCFDCF2D9808958F3FE9
:107960002FEF920729F4672B91F086EC91E705C081
:107970006817790760F484EA91E70E941A3B0E9435
:107980004B3C64E083E00E94233C80E0089581E06A
:1079900008954F925F927F928F929F92AF92BF9283
:1079A000CF92DF92EF92FF920F931F93CF93DF93CB
:1079B0001F92CDB7DEB7982E88E091E00E949E3AE4
:1079C000C82E8AE091E00E94B13A2C018EE091E04D
:1079D0000E949E3A882E882349F0782C7C0C740CE7
:1079E000750C720100E010E0D12C37C0B20180911B
:1079F0000001909101010E94AF3C882309F486C0E8
:107A0000ECCFC801880F991F805F9E4F0E949E3A5D
:107A1000911027C05701AA0CAB2CAA1CBB08B1942B
:107A20002091EF053091F005A216B30651F089833D
:107A30000E94643C0E945B3CB092F005A092EF056E
:107A40008981F701EF77FF27E159FA4F8083780E9C
:107A50000F5F1F4FFFEFEF1AFF0A0C151D058CF289
:107A600011C0F7019491981791F388E891E70E946B
:107A70001A3B0E944B3C802F880F62E0875F0E9478
:107A8000233C44C0C601880F991F805F9E4F0E940F
:107A90009E3A870D39F08CE691E70E941A3B0E94CE
:107AA0004B3C34C081E088121AC0911031C00E9452
:107AB000643C07B600FCFDCFF999FECF81E18093CD
:107AC0005700E8950E945B3C1092F0051092EF057C
:107AD0008FEF9FEF909301018093000119C09110E7
:107AE00003C081E691E702C085E591E70E941A3B59
:107AF000C40CD51CC6010E94293BE1E0CE1AD10876
:107B0000D0920101C092000181E003C083E001C076
:107B100082E00F90DF91CF911F910F91FF90EF9036
:107B2000DF90CF90BF90AF909F908F907F905F90AD
:107B30004F900895DF92EF92FF920F931F93CF9390
:107B4000DF93C0E0D0E0F12C50EFD52ED7FD21C05F
:107B50008E010F7011270115110569F48FE491E76B
:107B60000E941A3BCE010E94473B80E00E943C3BB2
:107B7000FD2CFC1AFD1AFE01E4908E2D0E943C3B68
:107B8000FE180F30110519F48F2D0E943C3B2196F1
:107B9000DDCF8FE391E7DF91CF911F910F91FF90A0
:107BA000EF90DF900C941A3B80910701883681F0AA
:107BB0003CF48823A1F0843671F40E949A3D0FC0F2
:107BC000813721F0823739F40E94AD3B0E94B53BEA
:107BD0008AED90E702C08BEC90E70E941A3B0C9470
:107BE0001F3C81E085BF82E085BF259A0E94DD3A77
:107BF0000E94C83A789483B7817F83BF0E945B3C20
:107C0000C0E0C11103C08DE890E702C085E790E7AE
:107C10000E941A3B0E941F3CD0E00E94C93B88236F
:107C2000B9F0809107018A3389F4D1110AC00E940A
:107C3000D23A60936B0570936C0580936D059093B9
:107C40006E058C2F0E94C93CD82F02C00E94D43DE3
:107C5000D23018F3D23011F00E94AD3B8EE690E79F
:107C60000E941A3B0E94D23A00916B0510916C055C
:107C700020916D0530916E05CB01801B910B0E9408
:107C8000293B88E690E70E941A3BCF5FC23009F09B
:107C9000B8CF0E94B53B94B704B603FE0BC084B7BF
:107CA000877F84BF88E10FB6F894809360001092BC
:107CB00060000FBE892F8A7031F020EB221209C0BC
:107CC0008AEA381206C0E0E0F0E0859194910196CE
:107CD00031F460EB262E7AEA372E0E94F13D312CEA
:107CE000212C0C94000080E090E00895AA1BBB1B9F
:107CF00051E107C0AA1FBB1FA617B70710F0A61BAC
:107D0000B70B881F991F5A95A9F780959095BC01CC
:087D1000CD010895F894FFCFA6
:027D1800FFFF6B
:040000030000700089
:00000001FF
