:107000000C944F390C946C390C946C390C946C3989
:107010000C946C390C946C390C946C390C946C395C
:107020000C946C390C946C390C946C390C946C394C
:107030000C946C390C946C390C94DD390C94403AF6
:107040000C946C390C946C390C946E390C94B139E5
:107050000C946C390C946C390C946C390C946C391C
:107060000C946C390C94423A6D73290D0A00204F30
:107070004B21202800506173746520616761696E3F
:1070800020746F207665726966790D0A0041565248
:10709000204865786C6F6164657220312E302067FE
:1070A0006974203063346432340D0A50617374653E
:1070B00020796F7572206865782066696C652C2070
:1070C00027682720666F722068656C700D0A00279C
:1070D000682720666F722068656C700D0A00207149
:1070E000097265626F6F7420746F206170700D0A91
:1070F0002072097265626F6F7420746F20626F6F07
:10710000746C6F616465720D0A20640964756D703A
:1071100020666C61736820696E2068657820666FF0
:10712000726D61740D0A206573630961626F727418
:107130002063757272656E7420636F6D6D616E642D
:107140000D0A000D0A3A30303030303030314646CA
:107150000D0A000D0A3A3130000D0A436865636B71
:1071600073756D206572726F7220696E206C696E26
:10717000653A0D0A000D0A48657820616E64206644
:107180006C617368206D69736D617463683A0D0A90
:10719000000D0A526567697374657273203E31365B
:1071A000206279746573206E6F7420737570706FD0
:1071B000727465640D0A000D566572696679696EB0
:1071C000673A20000D466C617368696E673A20006B
:1071D0000D0A416464726573736573206D75737411
:1071E00020626520696E6372656173696E673A0D2E
:1071F0000A000D0A466972737420616464726573D3
:1072000073206D75737420626520303A0D0A003E5C
:107210003A20000D0A55415254206572726F723A3D
:107220002064617461206F76657272756E0D0A005C
:107230000D0A55415254206572726F723A20627580
:1072400066666572206F766572666C6F772028744B
:1072500072792061206C6F7765722062617564209D
:1072600072617465290D0A00486176652061206E9F
:1072700069636520646179210D0A0D0A0052656217
:107280006F6F74696E6720696E746F20626F6F74C0
:107290006C6F616465720D0A0D0A000D0A001124FD
:1072A0001FBECFEFD8E0DEBFCDBF11E0A0E0B1E060
:1072B000EAEFFCE702C005900D92A230B107D9F7C2
:1072C00023E0A2E0B1E001C01D92A43DB207E1F7C6
:1072D0000E943C3E0C947B3E0C9400381F920F920F
:1072E0000FB60F9211242F933F934F935F938F9379
:1072F0009F93EF93FF933091C0004091C60080911F
:10730000CE038F5F582F33FF05C02091D303216038
:107310002093D30334FF05C02091D3032260209330
:10732000D30320910301521306C08091D3038460DC
:107330008093D30308C0E091CE03F0E0E95BFE4FF9
:1073400040838093CE03A895FF91EF919F918F91F9
:107350005F914F913F912F910F900FBE0F901F9013
:1073600018951F920F920FB60F9211248F939F932F
:10737000EF93FF939091460180914703981306C0C5
:107380008091C1008F7D8093C1000DC0E0914703C3
:10739000F0E0E95BFD4F80818093C6008091470358
:1073A0008F5F80934703A895FF91EF919F918F91F5
:1073B0000F900FBE0F901F9018951F920F920FB64F
:1073C0000F9211242F933F938F939F93AF93BF936B
:1073D0008091CF039091D003A091D103B091D203BB
:1073E0000196A11DB11D8093CF039093D003A0936C
:1073F000D103B093D2032D9A8091CF039091D00303
:10740000A091D103B091D20387709927AA27BB27F7
:10741000892B8A2B8B2B49F58091040190910501D2
:107420000196909305018093040127B530E0281759
:10743000390724F4109205011092040120910401EF
:107440003091050187B5869590E02817390734F407
:10745000809104019091050188BD07C027B58091F6
:10746000040190910501281B28BDBF91AF919F9108
:107470008F913F912F910F900FBE0F901F901895F5
:107480002D9818951F920F920FB60F9211248F937B
:1074900087B78F7787BF8F910F900FBE0F901F9088
:1074A000189581E083BF8DEC8093640008958F7000
:1074B0008A3010F4805D0895895C0895CF93DF933E
:1074C000C82F82958F700E94573AD82F8C2F8F70BB
:1074D0000E94573A2D2F30E0322F2227A901482B46
:1074E000CA01DF91CF9108950F931F93CF93DF933C
:1074F000182F892F0E945E3AEC01812F0E945E3A7C
:107500008C01CE01A0E0B0E07727662720E030E0D4
:10751000602B712B822B932BDF91CF911F910F91B9
:10752000089590ED980F9A3060F09FEB980F963089
:1075300010F4875308959FE9980F963020F48755EB
:107540000895892F089580E008951F93CF93DF93C6
:10755000EC0188810E94913A182F89810E94913A0A
:1075600090E1199F800D1124DF91CF911F91089513
:107570001F93CF93DF93EC010E94A53A182FCE0101
:1075800002960E94A53A212F30E0322F2227A9012E
:10759000480F511DCA01DF91CF911F91089582E0DC
:1075A00084BD89EF87BD83E085BD86E080936E0052
:1075B0000895F8946091CF037091D0038091D10326
:1075C0009091D2037894089580E190E09093C50063
:1075D0008093C40082E08093C00086E08093C20064
:1075E00088E98093C1000895209146012F5F30E023
:1075F000F8944091470350E04217530719F47894E8
:107600008895F6CF7894E0914601F0E0E95BFD4F74
:107610008083209346018091C10080628093C100E5
:107620000895CF93DF93FC018491EF012196882385
:1076300021F00E94F43AFE01F7CFDF91CF91089537
:10764000CF938A30910510F4805D0AC06AE070E043
:107650000E94673EC82FCB010E94203B80E38C0F25
:10766000CF910C94F43ACF930E945E3AC82F892FA1
:107670000E94F43A8C2FCF910C94F43A1F93CF933D
:10768000DF9300D0CDB7DEB70E94743A182F892F50
:107690006A8379830E94F43A812F0E94F43A7981B7
:1076A000872F0E94F43A6A81862F0F900F90DF9106
:1076B000CF911F910C94F43AF8949091030180912A
:1076C000CE03981303C078948895F6CF7894E09110
:1076D0000301F0E0E95BFE4F8081209103012F5F01
:1076E00020930301089528E088E190E00FB6F89414
:1076F000A895809360000FBE209360008895FECF10
:107700008DE792E70E94113B312C212C0E94733BA4
:1077100088E692E70E94113B50EB252E6AEA362E4E
:107720000E94733B8091D30382FF03C080E392E702
:1077300006C08091D30380FF06C083E192E70E94D8
:10774000113B0E94803B0E945C3B8B3149F48BE9EA
:1077500092E70E94113B109206011092020132C082
:10776000E09102018D3011F08A3091F4AE2FB0E03B
:10777000AA5FBE4F1C92EE2319F110920201809174
:1077800006018A33F9F08BE992E70E94113B1AC097
:10779000EF3378F491E09E0F90930201F0E0EA5FFE
:1077A000FE4F8083909106019A3351F00E94F43A83
:1077B00007C0EF3329F480E4809302011092450161
:1077C00080E0089581E008958FE092E70C94113BEA
:1077D000EF92FF920F931F93CF93DF93062FC0E09A
:1077E000D0E0E82EF12CCE15DF052CF480E20E94CB
:1077F000F43A2196F8CFC0E0D0E010E0C017D107EE
:107800002CF48EE50E94F43A2196F8CF8BE992E7AA
:10781000DF91CF911F910F91FF90EF900C94113B4E
:10782000CF93DF93C6E0D1E08991882319F00E94BD
:10783000F43AFACF8BE992E7DF91CF910C94113BA8
:10784000ECE4F3E08FEF819393E0EC3CF907D9F798
:107850000895E091CC03F091CD03F695FE2FEE272D
:10786000F795E795F89483E080935700E89587B7FC
:10787000806887BF7894F89407B600FE03C07894B8
:107880008895F9CF789480E090E041E0FC01E45BDA
:10789000FC4F218130E0322F22275081252BE091AF
:1078A000CC03F091CD03F695FE2FEE27F795E795E3
:1078B000E80FF91FF894090140935700E895112447
:1078C000789402968038910509F7E091CC03F09105
:1078D000CD03F695FE2FEE27F795E795F89485E012
:1078E00080935700E89587B7806887BF7894F894AD
:1078F00007B600FE03C078948895F9CF7894089570
:107900008F3F2FEF920729F4672B91F082EF91E7D9
:1079100005C06817790760F480ED91E70E94113B7C
:107920000E94103C64E083E00E94E83B80E0089500
:1079300081E00895CF93DF93EB01811103C084ECC4
:1079400091E702C087EB91E70E94113BCE01DF91E6
:10795000CF910C94203B4F925F926F927F928F92C7
:107960009F92AF92BF92CF92DF92EF92FF920F93CE
:107970001F93CF93DF931F92CDB7DEB7882E87E09A
:1079800091E00E94A53A982E89E091E00E94B83AD1
:107990002C018DE091E00E94A53A782E882361F0B9
:1079A00080E18915A0F481E991E70E94113B0E94D2
:1079B000103C62E081E052C0B201809100019091E0
:1079C00001010E94803C882309F490C0E9CF672C14
:1079D000690C640C650C720100E010E0C92CD12C1C
:1079E00023C05701AA0CAB2CAA1CBB08B194209150
:1079F000CC033091CD03A216B30651F089830E94C7
:107A0000293C0E94203CB092CD03A092CC038981F6
:107A1000F701EF77FF27E45BFC4F8083680E0F5F71
:107A20001F4FFFEFEF1AFF0A0C151D05D4F4C80114
:107A3000880F991F815F9E4F0E94A53A882089F286
:107A4000F7019491981751F385E791E70E94113B54
:107A50000E94103C802F880F62E0875F0E94E83B05
:107A600045C0C601880F991F815F9E4F0E94A53AAD
:107A7000860D41F089E591E70E94113B0E94103C80
:107A8000892DE9CF81E0781222C0811031C00E9497
:107A9000293CF89481E180935700E89587B7806886
:107AA00087BF7894F89407B600FE03C07894889551
:107AB000F9CF78940E94203C1092CD031092CC0311
:107AC0008FEF9FEF909301018093000111C0C40CD0
:107AD000D51CB601882D0E949A3CE1E0CE1AD1084F
:107AE000D0920101C092000181E003C083E001C097
:107AF00082E00F90DF91CF911F910F91FF90EF9057
:107B0000DF90CF90BF90AF909F908F907F906F90BD
:107B10005F904F900895DF92EF92FF920F931F9323
:107B2000CF93DF93C0E0D0E0F12C50EFD52ED7FDFE
:107B300021C08E010F7011270115110569F483E52D
:107B400091E70E94113BCE010E943E3B80E00E94E3
:107B5000333BFD2CFC1AFD1AFE01E4908E2D0E9491
:107B6000333BFE180F30110519F48F2D0E94333B63
:107B70002196DDCF83E491E7DF91CF911F910F91A3
:107B8000FF90EF90DF900C94113B809106018836B6
:107B900081F03CF48823A1F0843671F40E948B3D7F
:107BA0000FC0813721F0823739F40E94803B0E9458
:107BB000883B8EED90E702C08FEC90E70E94113B6E
:107BC0000C94E43B81E085BF82E085BF259A2D9827
:107BD0000E94513A0E94E43A0E94CF3A78940E945F
:107BE000203CC0E0C11103C08DE890E702C085E7EA
:107BF00090E70E94113B0E94E43BD0E00E94923B40
:107C00008823B9F0809106018A3389F4D1110AC022
:107C10000E94D93A609348037093490380934A03C2
:107C200090934B038C2F0E94AB3CD82F02C00E9434
:107C3000C53DD23018F3D23011F00E94803B8EE661
:107C400090E70E94113B0E94D93A0091480310919D
:107C5000490320914A0330914B03CB01801B910BC8
:107C60000E94203B88E690E70E94113BCF5FC23024
:107C700009F0B8CF0E94883B94B704B603FE0BC04E
:107C800084B7877F84BF88E10FB6F8948093600043
:107C9000109260000FBE892F8A7031F020EB221203
:107CA00009C08AEA381206C0E0E0F0E085919491BC
:107CB000019631F460EB262E7AEA372E0E94E23DDF
:107CC000312C212C0C94000080E090E00895AA1B38
:107CD000BB1B51E107C0AA1FBB1FA617B70710F0B7
:107CE000A61BB70B881F991F5A95A9F780959095E9
:0A7CF000BC01CD010895F894FFCF08
:027CFA00FFFF8A
:040000030000700089
:00000001FF
