:107000004EC100005CC100005AC1000058C1000020
:1070100056C1000054C1000052C1000050C1000020
:107020004EC100004CC100004AC1000048C1000030
:1070300046C1000044C10000B2C10000F9C1000017
:107040003EC100003CC100003BC100007CC100000B
:1070500036C1000034C1000032C1000030C1000060
:107060002EC10000E7C100006D73290D0A00204FFA
:107070004B21202800506173746520616761696E3F
:1070800020746F207665726966790D0A0041565248
:10709000204865786C6F6164657220312E302067FE
:1070A0006974203466366538650D0A5061737465FD
:1070B00020796F7572206865782066696C652C2070
:1070C00027682720666F722068656C700D0A00279C
:1070D000682720666F722068656C700D0A00207149
:1070E000097265626F6F7420746F206170700D0A91
:1070F0002072097265626F6F7420746F20626F6F07
:10710000746C6F616465720D0A20640964756D703A
:1071100020666C61736820696E2068657820666FF0
:10712000726D61740D0A206573630961626F727418
:107130002063757272656E7420636F6D6D616E642D
:107140000D0A000D0A3A30303030303030314646CA
:107150000D0A000D0A3A3130000D0A436865636B71
:1071600073756D206572726F7220696E206C696E26
:10717000653A0D0A000D0A48657820616E64206644
:107180006C617368206D69736D617463683A0D0A90
:10719000000D0A526567697374657273203E31365B
:1071A000206279746573206E6F7420737570706FD0
:1071B000727465640D0A000D566572696679696EB0
:1071C000673A20000D466C617368696E673A20006B
:1071D0000D0A416464726573736573206D75737411
:1071E00020626520696E6372656173696E673A0D2E
:1071F0000A000D0A466972737420616464726573D3
:1072000073206D75737420626520303A0D0A003E5C
:107210003A20000D0A55415254206572726F723A3D
:107220002064617461206F76657272756E0D0A005C
:107230000D0A55415254206572726F723A20627580
:1072400066666572206F766572666C6F772028744B
:1072500072792061206C6F7765722062617564209D
:1072600072617465290D0A00486176652061206E9F
:1072700069636520646179210D0A0D0A0052656217
:107280006F6F74696E6720696E746F20626F6F74C0
:107290006C6F616465720D0A0D0A000D0A001124FD
:1072A0001FBECFEFD8E0DEBFCDBF23E0A0E0B1E04E
:1072B00001C01D92A03DB207E1F703D43BC4A0CEAC
:1072C0001F920F920FB60F9211242F933F934F935B
:1072D0005F938F939F93EF93FF933091C000409102
:1072E000C6008091CC038F5F582F33FF05C02091DB
:1072F000CF0321602093CF0334FF05C02091CF033B
:1073000022602093CF0320910101521306C0809187
:10731000CF0384608093CF0308C0E091CC03F0E0FA
:10732000EB5BFE4F40838093CC03A895FF91EF91D8
:107330009F918F915F914F913F912F910F900FBE31
:107340000F901F9018951F920F920FB60F92112455
:107350008F939F93EF93FF93909144018091470304
:10736000981306C08091C1008F7D8093C1000DC02D
:10737000E0914703F0E0EB5BFD4F80818093C60016
:10738000809147038F5F80934703A895FF91EF910A
:107390009F918F910F900FBE0F901F9018951F9285
:1073A0000F920FB60F9211242F933F938F939F93B9
:1073B0008091CD039091CE0301969093CE0380935C
:1073C000CD032D9A87709927892B49F58091020169
:1073D000909103010196909303018093020127B5D8
:1073E00030E02817390724F41092030110920201AB
:1073F000209102013091030187B5869590E028170E
:10740000390734F4809102019091030188BD07C0CF
:1074100027B58091020190910301281B28BD9F91FF
:107420008F913F912F910F900FBE0F901F90189545
:107430002D9818951F920F920FB60F9211248F93CB
:1074400087B78F7787BF8F910F900FBE0F901F90D8
:10745000189581E083BF8DEC809364000895FC0152
:1074600080E090E06623D9F024E0880F991F2A95E8
:10747000E1F7219130ED320F3A3010F4C09705C09A
:107480003FEB320F363030F4C797820F911D27FD46
:107490009A9503C0213609F40A966150E3CF089506
:1074A00082E084BD89EF87BD83E085BD86E080935F
:1074B0006E000895F8948091CD039091CE03789456
:1074C000089580E190E09093C5008093C40082E02D
:1074D0008093C00086E08093C20088E98093C10059
:1074E0000895209144012F5F30E0F89440914703C4
:1074F00050E04217530719F478948895F6CF7894A2
:10750000E0914401F0E0EB5BFD4F80832093440168
:107510008091C10080628093C1000895CF93DF9372
:10752000FC018491EF012196882319F0DADFFE0136
:10753000F8CFDF91CF910895CF938A30910510F461
:10754000805D08C06AE070E0E1D2C82FCB01F4DFB3
:1075500080E38C0FCF91C5CF611101C00895CF9307
:10756000DF93EC01615034E0969587953A95E1F709
:10757000F3DFCE018F7099278A30910510F4805D7A
:1075800001C0895CDF91CF91ACCFF894909101015B
:107590008091CC03981303C078948895F6CF7894A3
:1075A000E0910101F0E0EB5BFE4F80812091010151
:1075B0002F5F2093010108952BE088E190E00FB642
:1075C000F894A895809360000FBE20936000889582
:1075D000FECF8DE792E7A2DF312C212CEDDF88E68C
:1075E00092E79CDF40EB242E5AEA352EE5DF8091AE
:1075F000CF0382FF03C080E392E706C08091CF03F0
:1076000080FF04C083E192E789DFE3DFBEDF8B31D7
:1076100041F48BE992E782DF10920401109200019D
:1076200030C0E09100018D3011F08A3089F4AE2F26
:10763000B0E0AC5FBE4F1C92EE2309F11092000146
:10764000809104018A33E9F08BE992E767DF19C082
:10765000EF3370F491E09E0F90930001F0E0EC5F47
:10766000FE4F8083909104019A3349F03ADF07C0BE
:10767000EF3329F480E4809300011092430180E00D
:10768000089581E008958FE092E748CFEF92FF924E
:107690000F931F93CF93DF93062FC0E0D0E0E82E27
:1076A000F12CCE15DF0524F480E21BDF2196F9CF03
:1076B000C0E0D0E010E0C017D10724F48EE511DF60
:1076C0002196F9CF8BE992E7DF91CF911F910F912E
:1076D000FF90EF9023CFCF93DF93C4E0D1E0899167
:1076E000882311F0FEDEFBCF8BE992E7DF91CF918B
:1076F00015CFEAE4F3E08FEF819393E0EA3CF907DA
:10770000D9F708958091CA039091CB039695982F4D
:10771000882797958795F89423E0FC0120935700DC
:10772000E89527B7206827BF7894F89407B600FE3D
:1077300003C078948895F9CF789420E030E061E038
:10774000F901E65BFC4F418150E0542F44277081E2
:10775000472BF894F901E80FF91F0A0160935700CD
:10776000E895112478942E5F3F4F2038310541F77A
:10777000F89425E0FC0120935700E89587B78068CE
:1077800087BF7894F89407B600FE03C07894889574
:10779000F9CF789408958F3F2FEF920729F4672B44
:1077A00079F082EF91E705C06817790748F480ED1A
:1077B00091E7B4DE90DF64E083E068DF80E0089565
:1077C00081E00895CF93DF93EB01811103C084EC36
:1077D00091E702C087EB91E7A1DECE01DF91CF9167
:1077E000ABCE5F926F927F928F929F92AF92BF9239
:1077F000CF92DF92EF92FF920F931F93CF93DF937D
:1078000000D01F92CDB7DEB7782E62E085E091E020
:1078100026DE7C01182F64E087E091E020DE9B8368
:107820008A8362E08BE091E01ADE682E882349F0BB
:10783000113190F081E991E771DE4DDF62E081E086
:1078400054C06A817B818091450390914603A3DFF8
:10785000882309F482C0ECCF562C5E0C8A81580E26
:107860009B81590EBDE0AB2EB1E0BB2E0A811B817E
:107870006701DD2421C04801880C892C881C9908E7
:1078800091942091CA033091CB038216930641F064
:10789000898338DF2EDF9092CB038092CA038981DF
:1078A000F801EF77FF27E65BFC4F8083580EF2E08C
:1078B000AF0EB11C0F5F1F4F48018A819B81881A50
:1078C000990A62E08C149D0494F4C501C8DD772008
:1078D00091F2F8019491981749F385E791E71EDE3C
:1078E000FADE882D880F62E0875FD0DE36C0C601E1
:1078F000880F991F835F9E4FB2DD850D31F089E5BA
:1079000091E70CDEE8DE8E2DEDCF91E0691215C017
:10791000711025C0F7DEF89481E180935700E89557
:1079200087B7806887BF7894F89407B600FE03C0D5
:1079300078948895F9CF789412C0EA81FB81CE0EB5
:10794000DF1EB601872D3EDFF1E0CF1AD108D092BD
:107950004603C092450381E003C083E001C082E09A
:107960000F900F900F90DF91CF911F910F91FF908B
:10797000EF90DF90CF90BF90AF909F908F907F90CF
:107980006F905F900895DF92EF92FF920F931F9395
:10799000CF93DF93C0E0D0E0F12C10EFD12ED7FDD4
:1079A00023C08E010F7011270115110569F483E5BD
:1079B00091E7B4DD64E0CE01D2DD62E080E090E0EA
:1079C000CEDDFD2CFC1AFD1AFE01E49062E08E2D46
:1079D00090E0C5DDFE180F30110521F462E08F2D17
:1079E00090E0BDDD2196DBCF83E491E7DF91CF917D
:1079F0001F910F91FF90EF90DF9090CD8091040147
:107A0000883669F034F4882381F0843659F4BBDF7A
:107A10000CC0813719F0823729F4DBDDE0DD8EED13
:107A200090E702C08FEC90E779DD2DCE81E085BF35
:107A300082E085BF259A0DDD44DD32DD789459DE84
:107A400010E0CFEFDFEF111103C08DE890E702C027
:107A500085E790E763DD17DE4CDE1092CB031092D2
:107A6000CA03D0934603C093450300E0C0DD8823DA
:107A700081F0809104018A3359F4011105C01ADDA7
:107A80009093490380934803812FABDE082F01C0F8
:107A9000B5DF023058F3023009F09BDD8EE690E747
:107AA0003DDD08DD2091480330914903821B930B93
:107AB00043DD88E690E732DD1F5F123009F0C3CF67
:107AC0008EDD84B783FF0BC0982F977F94BF98E11A
:107AD0000FB6F89490936000109260000FBE8A7009
:107AE00031F020EB22120DC08AEA38120AC0E0E021
:107AF000F0E085919491019621F0312C212C0C9489
:107B0000000080EB282E9AEA392E90DFAA1BBB1BBF
:107B100051E107C0AA1FBB1FA617B70710F0A61B8D
:107B2000B70B881F991F5A95A9F780959095BC01AE
:087B3000CD010895F894FFCF88
:040000030000700089
:00000001FF
