:107000000C9441390C945E390C945E390C945E39C1
:107010000C945E390C945E390C945E390C945E3994
:107020000C945E390C945E390C945E390C945E3984
:107030000C945E390C945E390C94E5390C94483A02
:107040000C945E390C945E390C9460390C94A93917
:107050000C945E390C945E390C945E390C945E3954
:107060000C945E390C945E396D73290D0A00204F23
:107070004B21202800506173746520616761696E3F
:1070800020746F207665726966790D0A0041565248
:10709000204865786C6F6164657220312E302E63F4
:1070A00061633535392D64697274790D0A506173E5
:1070B000746520796F7572206865782066696C65E3
:1070C0002C2027682720666F722068656C700D0A77
:1070D0000027682720666F722068656C700D0A00B3
:1070E0002071097265626F6F7420746F2061707017
:1070F0000D0A2072097265626F6F7420746F2062CE
:107100006F6F746C6F616465720D0A206409647539
:107110006D7020666C61736820696E2068657820E8
:10712000666F726D61740D0A206573630961626F29
:1071300072742063757272656E7420636F6D6D6119
:107140006E640D0A000D0A3A303030303030303184
:1071500046460D0A000D0A3A3130000D5665726937
:10716000666965643A20000D466C61736865643A2F
:1071700020000D0A436865636B73756D206572723C
:107180006F7220696E206C696E653A0D0A000D0AF7
:1071900048657820616E6420666C617368206D6953
:1071A000736D617463683A0D0A000D0A416464727C
:1071B0006573736573206D75737420626520696EE5
:1071C0006372656173696E673A0D0A000D0A46695C
:1071D0007273742061646472657373206D75737467
:1071E00020626520303A0D0A000D0A000D0A003EAB
:1071F0003A20000D0A000D0A000D0A554152542094
:107200006572726F723A2064617461206F76657284
:1072100072756E0D0A000D0A554152542065727246
:107220006F723A20627566666572206F7665726667
:107230006C6F7720287472792061206C6F7765728B
:1072400020626175642072617465290D0A004861CD
:1072500076652061206E69636520646179210D0A7D
:107260000D0A005265626F6F74696E6720696E74F3
:107270006F20626F6F746C6F616465720D0A0D0A26
:10728000000011241FBECFEFD8E0DEBFCDBF11E05C
:10729000A0E0B1E0EEE1FDE702C005900D92A23062
:1072A000B107D9F725E0A2E0B1E001C01D92A83FE7
:1072B000B207E1F70E944E3E0C948D3E0C940038CC
:1072C0001F920F920FB60F9211242F933F934F935B
:1072D0008F939F93EF93FF933091C0004091C6002E
:1072E0008091F1059091F2050196937033FF05C0EE
:1072F0002091F70521602093F70534FF05C0209108
:10730000F70522602093F7052091030130910401D5
:107310008217930731F48091F70584608093F70515
:107320000BC0E091F105F091F205E75BFE4F408361
:107330009093F2058093F105A895FF91EF919F91AD
:107340008F914F913F912F910F900FBE0F901F90F3
:1073500018951F920F920FB60F9211242F933F93FF
:107360008F939F93EF93FF932091470130914801B2
:107370008091690590916A052817390731F4809149
:10738000C1008F7D8093C10014C0E0916905F09128
:107390006A05E75BFA4F80818093C600809169059A
:1073A00090916A0501968F71992790936A05809351
:1073B0006905A895FF91EF919F918F913F912F9132
:1073C0000F900FBE0F901F9018951F920F920FB63F
:1073D0000F9211242F933F938F939F93AF93BF935B
:1073E0008091F3059091F405A091F505B091F60513
:1073F0000196A11DB11D8093F3059093F405A09310
:10740000F505B093F6052D9A8091F3059091F4055A
:10741000A091F505B091F60587709927AA27BB279B
:10742000892B8A2B8B2B49F58091050190910601C0
:107430000196909306018093050127B530E0281747
:10744000390720F4109206011092050120910501E0
:107450003091060187B5869590E02817390730F4FA
:10746000809105019091060188BD07C027B58091E4
:10747000050190910601281B28BDBF91AF919F91F6
:107480008F913F912F910F900FBE0F901F901895E5
:107490001F920F920FB60F9211242D980F900FBECE
:1074A0000F901F9018958F708A3010F4805D0895AA
:1074B000895C0895CF93DF93C82F82958F700E94C7
:1074C000533AD82F8C2F8F700E94533A2D2F30E0D3
:1074D000322F2227A901482BCA01DF91CF910895AD
:1074E0000F931F93CF93DF93182F892F0E945A3A3F
:1074F000EC01812F0E945A3A8C01CE01A0E0B0E04D
:107500007727662720E030E0602B712B822B932BAE
:10751000DF91CF911F910F91089590ED980F9A30C0
:1075200060F09FEB980F963010F4875308959FE911
:10753000980F963020F487550895892F089580E09C
:1075400008951F93CF93DF93EC0188810E948D3AB9
:10755000182F89810E948D3A90E1199F800D112486
:10756000DF91CF911F9108951F93CF93DF93EC018B
:107570000E94A13A182FCE0102960E94A13A212F13
:1075800030E0322F2227A901480F511DCA01DF9197
:10759000CF911F91089582E084BD80EF87BD83E085
:1075A00085BD86E080936E000895F8946091F305A0
:1075B0007091F4058091F5059091F6057894089501
:1075C0001092C50080E18093C40082E08093C000E7
:1075D00088E98093C10086E08093C20008952091DD
:1075E0004701309148012F5F3F4F2F713327F894A7
:1075F0004091690550916A054217530751F493B7BA
:10760000916093BF7894889593B79E7F93BF789449
:10761000EECF7894E0914701F0914801E75BFA4F93
:107620008083F894309348012093470178948091A7
:10763000C10080628093C1000895CF93DF93FC0165
:107640008491EF012196882321F00E94EF3AFE01F8
:10765000F7CFDF91CF910895CF938A30910510F441
:10766000805D0AC06AE070E00E94793EC82FCB01BD
:107670000E942C3B80E38C0FCF910C94EF3ACF9378
:107680000E945A3AC82F892F0E94EF3A8C2FCF912F
:107690000C94EF3A1F93CF93DF9300D0CDB7DEB7B2
:1076A0000E94703A182F892F6A8379830E94EF3ADB
:1076B000812F0E94EF3A7981872F0E94EF3A6A81E9
:1076C000862F0F900F90DF91CF911F910C94EF3A7E
:1076D00020910301309104018091F1059091F20510
:1076E00028173907B1F0F894E0910301F0910401F3
:1076F000E75BFE4F208130E080910301909104010F
:107700000196937090930401809303017894C901CA
:1077100008958FEF9FEF0895409103015091040168
:107720002091F1053091F20581E04217530709F4E9
:1077300080E0089528E088E190E00FB6F894A895DD
:10774000809360000FBE20936000F89483B781603F
:1077500083BF7894889583B78E7F83BF7894F5CF65
:1077600083E692E70E941D3B312C212C0E949A3B1C
:107770008EE492E70E941D3B50EB252E6AEA362EDE
:1077800028E088E190E00FB6F894A8958093600017
:107790000FBE20936000FFCF8091F70582FF03C0EA
:1077A00086E192E706C08091F70580FF06C089EF69
:1077B00091E70E941D3B0E94B03B0E948C3B8823B6
:1077C000A9F10E94683B8B3149F486EF91E70E9452
:1077D0001D3B109207011092020132C0E09102019C
:1077E0008D3011F08A3091F4AE2FB0E0A95FBE4F1A
:1077F0001C92EE23D9F010920201809107018A3386
:10780000F9F083EF91E70E941D3B1AC0EF3380F43B
:1078100091E09E0F90930201F0E0E95FFE4F8083BC
:10782000909107019A3311F00E94EF3A80E0089599
:10783000EF33E1F780E48093020110924601F6CF26
:1078400081E008958FEE91E70C941D3BEF92FF923B
:107850000F931F93CF93DF93062FC0E0D0E0E82E65
:10786000F12CCE15DF052CF480E20E94EF3A219630
:10787000F8CFC0E0D0E010E0C017D1072CF48EE5BF
:107880000E94EF3A2196F8CF8CEE91E7DF91CF91ED
:107890001F910F91FF90EF900C941D3BCF93DF93BE
:1078A000C7E0D1E08991882319F00E94EF3AFACF1E
:1078B00089EE91E7DF91CF910C941D3BEFE6F5E067
:1078C0008FEF819395E0EF3EF907D9F7089507B65A
:1078D00000FCFDCFF894E091EF05F091F005F695EE
:1078E000FE2FEE27F795E79583E080935700E89504
:1078F000789407B600FCFDCF80E090E041E0FC0109
:10790000E159FA4F218130E0322F22275081252B77
:10791000F894E091EF05F091F005F695FE2FEE2733
:10792000F795E795E80FF91F090140935700E8958F
:107930001124789402968038910509F7F894E09123
:10794000EF05F091F005F695FE2FEE27F795E795F8
:1079500085E080935700E895789407B600FCFDCF4A
:107960002D9808958F3F2FEF920729F4672B91F000
:107970008CEC91E705C06817790760F48AEA91E713
:107980000E941D3B0E944E3C64E083E00E94263C26
:1079900080E0089581E008954F925F927F928F92E8
:1079A0009F92AF92BF92CF92DF92EF92FF920F938E
:1079B0001F93CF93DF931F92CDB7DEB7982E88E049
:1079C00091E00E94A13AC82E8AE091E00E94B43A68
:1079D0002C018EE091E00E94A13A882E882349F084
:1079E000782C7C0C740C750C720100E010E0D12C2A
:1079F00037C0B20180910001909101010E94B23C18
:107A0000882309F486C0ECCFC801880F991F805FD6
:107A10009E4F0E94A13A911027C05701AA0CAB2C8F
:107A2000AA1CBB08B1942091EF053091F005A21675
:107A3000B30651F089830E94673C0E945E3CB0927D
:107A4000F005A092EF058981F701EF77FF27E15953
:107A5000FA4F8083780E0F5F1F4FFFEFEF1AFF0A78
:107A60000C151D058CF211C0F7019491981791F334
:107A70008EE891E70E941D3B0E944E3C802F880FAC
:107A800062E0875F0E94263C44C0C601880F991FB0
:107A9000805F9E4F0E94A13A870D39F082E791E7FF
:107AA0000E941D3B0E944E3C34C081E088121AC0E7
:107AB000911031C00E94673C07B600FCFDCFF999D8
:107AC000FECF81E180935700E8950E945E3C1092C2
:107AD000F0051092EF058FEF9FEF909301018093D7
:107AE000000119C0911003C087E691E702C08BE541
:107AF00091E70E941D3BC40CD51CC6010E942C3B83
:107B0000E1E0CE1AD108D0920101C092000181E0DB
:107B100003C083E001C082E00F90DF91CF911F91FD
:107B20000F91FF90EF90DF90CF90BF90AF909F901C
:107B30008F907F905F904F900895DF92EF92FF9229
:107B40000F931F93CF93DF93C0E0D0E0F12C50EF61
:107B5000D52ED7FD21C08E010F70112701151105FB
:107B600069F485E591E70E941D3BCE010E944A3BE6
:107B700080E00E943F3BFD2CFC1AFD1AFE01E490C0
:107B80008E2D0E943F3BFE180F30110519F48F2DEA
:107B90000E943F3B2196DDCF85E491E7DF91CF91B5
:107BA0001F910F91FF90EF90DF900C941D3B8091FF
:107BB0000701883681F03CF48823A1F0843671F403
:107BC0000E949D3D0FC0813721F0823739F40E9419
:107BD000B03B0E94B83B80EE90E702C081ED90E799
:107BE0000E941D3B0C94223C81E085BF82E085BF52
:107BF000259A0E94E03A0E94CB3A789483B7817F1D
:107C000083BF0E945E3CC0E0C11103C08DE890E7D5
:107C100002C085E790E70E941D3B0E94223CD0E015
:107C20000E94CC3B8823B9F0809107018A3389F404
:107C3000D1110AC00E94D53A60936B0570936C0510
:107C400080936D0590936E058C2F0E94CC3CD82FAD
:107C500002C00E94D73DD23018F3D23011F00E94FA
:107C6000B03B8EE690E70E941D3B0E94D53A009102
:107C70006B0510916C0520916D0530916E05CB015F
:107C8000801B910B0E942C3B88E690E70E941D3BD5
:107C9000CF5FC23009F0B8CF0E94B83B94B704B6AA
:107CA00003FE0BC084B7877F84BF88E10FB6F894CA
:107CB00080936000109260000FBE892F8A7031F0AF
:107CC00020EB221209C08AEA381206C0E0E0F0E098
:107CD00085919491019631F460EB262E7AEA372E45
:107CE0000E94F43D312C212C0C94000080E090E0A7
:107CF0000895AA1BBB1B51E107C0AA1FBB1FA617F3
:107D0000B70710F0A61BB70B881F991F5A95A9F744
:0E7D100080959095BC01CD010895F894FFCFA9
:027D1E00FFFF65
:040000030000700089
:00000001FF
